{
  "_format": "hh-sol-artifact-1",
  "contractName": "MedicalRecords",
  "sourceName": "Contracts/MedicalRecords.sol",
  "abi": [
    {
      "inputs": [],
      "stateMutability": "nonpayable",
      "type": "constructor"
    },
    {
      "anonymous": false,
      "inputs": [
        {
          "indexed": true,
          "internalType": "address",
          "name": "patient",
          "type": "address"
        },
        {
          "indexed": true,
          "internalType": "address",
          "name": "provider",
          "type": "address"
        },
        {
          "indexed": false,
          "internalType": "uint256",
          "name": "permissionType",
          "type": "uint256"
        },
        {
          "indexed": false,
          "internalType": "uint256",
          "name": "expiresAt",
          "type": "uint256"
        }
      ],
      "name": "AccessGranted",
      "type": "event"
    },
    {
      "anonymous": false,
      "inputs": [
        {
          "indexed": true,
          "internalType": "address",
          "name": "patient",
          "type": "address"
        },
        {
          "indexed": true,
          "internalType": "address",
          "name": "provider",
          "type": "address"
        }
      ],
      "name": "AccessRevoked",
      "type": "event"
    },
    {
      "anonymous": false,
      "inputs": [
        {
          "indexed": true,
          "internalType": "address",
          "name": "patient",
          "type": "address"
        }
      ],
      "name": "PatientRegistered",
      "type": "event"
    },
    {
      "anonymous": false,
      "inputs": [
        {
          "indexed": true,
          "internalType": "address",
          "name": "patient",
          "type": "address"
        },
        {
          "indexed": true,
          "internalType": "uint256",
          "name": "index",
          "type": "uint256"
        },
        {
          "indexed": false,
          "internalType": "string",
          "name": "cid",
          "type": "string"
        },
        {
          "indexed": true,
          "internalType": "address",
          "name": "addedBy",
          "type": "address"
        },
        {
          "indexed": false,
          "internalType": "string",
          "name": "hash",
          "type": "string"
        }
      ],
      "name": "RecordAdded",
      "type": "event"
    },
    {
      "anonymous": false,
      "inputs": [
        {
          "indexed": true,
          "internalType": "address",
          "name": "patient",
          "type": "address"
        },
        {
          "indexed": true,
          "internalType": "uint256",
          "name": "index",
          "type": "uint256"
        },
        {
          "indexed": false,
          "internalType": "string",
          "name": "newMeta",
          "type": "string"
        }
      ],
      "name": "RecordUpdated",
      "type": "event"
    },
    {
      "anonymous": false,
      "inputs": [
        {
          "indexed": true,
          "internalType": "address",
          "name": "patient",
          "type": "address"
        },
        {
          "indexed": true,
          "internalType": "uint256",
          "name": "index",
          "type": "uint256"
        },
        {
          "indexed": false,
          "internalType": "string",
          "name": "hash",
          "type": "string"
        }
      ],
      "name": "RecordVerified",
      "type": "event"
    },
    {
      "inputs": [
        {
          "internalType": "address",
          "name": "patient",
          "type": "address"
        },
        {
          "internalType": "string",
          "name": "cid",
          "type": "string"
        },
        {
          "internalType": "string",
          "name": "fileType",
          "type": "string"
        },
        {
          "internalType": "string",
          "name": "meta",
          "type": "string"
        },
        {
          "internalType": "string",
          "name": "recordHash",
          "type": "string"
        }
      ],
      "name": "addRecord",
      "outputs": [],
      "stateMutability": "nonpayable",
      "type": "function"
    },
    {
      "inputs": [
        {
          "internalType": "address",
          "name": "patient",
          "type": "address"
        }
      ],
      "name": "getAllRecords",
      "outputs": [
        {
          "internalType": "string[]",
          "name": "cids",
          "type": "string[]"
        },
        {
          "internalType": "string[]",
          "name": "fileTypes",
          "type": "string[]"
        },
        {
          "internalType": "string[]",
          "name": "metas",
          "type": "string[]"
        },
        {
          "internalType": "uint256[]",
          "name": "timestamps",
          "type": "uint256[]"
        },
        {
          "internalType": "address[]",
          "name": "addedBys",
          "type": "address[]"
        },
        {
          "internalType": "bool[]",
          "name": "isVerifieds",
          "type": "bool[]"
        },
        {
          "internalType": "string[]",
          "name": "hashes",
          "type": "string[]"
        }
      ],
      "stateMutability": "view",
      "type": "function"
    },
    {
      "inputs": [
        {
          "internalType": "address",
          "name": "patient",
          "type": "address"
        }
      ],
      "name": "getPatientProviders",
      "outputs": [
        {
          "internalType": "address[]",
          "name": "",
          "type": "address[]"
        }
      ],
      "stateMutability": "view",
      "type": "function"
    },
    {
      "inputs": [
        {
          "internalType": "address",
          "name": "patient",
          "type": "address"
        },
        {
          "internalType": "address",
          "name": "provider",
          "type": "address"
        }
      ],
      "name": "getPermission",
      "outputs": [
        {
          "internalType": "uint256",
          "name": "permissionType",
          "type": "uint256"
        },
        {
          "internalType": "uint256",
          "name": "expiresAt",
          "type": "uint256"
        },
        {
          "internalType": "bool",
          "name": "isActive",
          "type": "bool"
        }
      ],
      "stateMutability": "view",
      "type": "function"
    },
    {
      "inputs": [
        {
          "internalType": "address",
          "name": "patient",
          "type": "address"
        },
        {
          "internalType": "uint256",
          "name": "index",
          "type": "uint256"
        }
      ],
      "name": "getRecord",
      "outputs": [
        {
          "internalType": "string",
          "name": "cid",
          "type": "string"
        },
        {
          "internalType": "string",
          "name": "fileType",
          "type": "string"
        },
        {
          "internalType": "string",
          "name": "meta",
          "type": "string"
        },
        {
          "internalType": "uint256",
          "name": "timestamp",
          "type": "uint256"
        },
        {
          "internalType": "address",
          "name": "addedBy",
          "type": "address"
        },
        {
          "internalType": "bool",
          "name": "isVerified",
          "type": "bool"
        },
        {
          "internalType": "string",
          "name": "hash",
          "type": "string"
        }
      ],
      "stateMutability": "view",
      "type": "function"
    },
    {
      "inputs": [
        {
          "internalType": "address",
          "name": "patient",
          "type": "address"
        }
      ],
      "name": "getRecordCount",
      "outputs": [
        {
          "internalType": "uint256",
          "name": "",
          "type": "uint256"
        }
      ],
      "stateMutability": "view",
      "type": "function"
    },
    {
      "inputs": [],
      "name": "getStats",
      "outputs": [
        {
          "internalType": "uint256",
          "name": "",
          "type": "uint256"
        },
        {
          "internalType": "uint256",
          "name": "",
          "type": "uint256"
        }
      ],
      "stateMutability": "view",
      "type": "function"
    },
    {
      "inputs": [
        {
          "internalType": "address",
          "name": "provider",
          "type": "address"
        },
        {
          "internalType": "uint256",
          "name": "permissionType",
          "type": "uint256"
        },
        {
          "internalType": "uint256",
          "name": "durationInDays",
          "type": "uint256"
        }
      ],
      "name": "grantAccess",
      "outputs": [],
      "stateMutability": "nonpayable",
      "type": "function"
    },
    {
      "inputs": [
        {
          "internalType": "address",
          "name": "patient",
          "type": "address"
        },
        {
          "internalType": "address",
          "name": "provider",
          "type": "address"
        }
      ],
      "name": "hasAccess",
      "outputs": [
        {
          "internalType": "bool",
          "name": "",
          "type": "bool"
        }
      ],
      "stateMutability": "view",
      "type": "function"
    },
    {
      "inputs": [],
      "name": "owner",
      "outputs": [
        {
          "internalType": "address",
          "name": "",
          "type": "address"
        }
      ],
      "stateMutability": "view",
      "type": "function"
    },
    {
      "inputs": [],
      "name": "registerPatient",
      "outputs": [],
      "stateMutability": "nonpayable",
      "type": "function"
    },
    {
      "inputs": [
        {
          "internalType": "address",
          "name": "provider",
          "type": "address"
        }
      ],
      "name": "revokeAccess",
      "outputs": [],
      "stateMutability": "nonpayable",
      "type": "function"
    },
    {
      "inputs": [],
      "name": "totalPatients",
      "outputs": [
        {
          "internalType": "uint256",
          "name": "",
          "type": "uint256"
        }
      ],
      "stateMutability": "view",
      "type": "function"
    },
    {
      "inputs": [],
      "name": "totalRecords",
      "outputs": [
        {
          "internalType": "uint256",
          "name": "",
          "type": "uint256"
        }
      ],
      "stateMutability": "view",
      "type": "function"
    },
    {
      "inputs": [
        {
          "internalType": "address",
          "name": "patient",
          "type": "address"
        },
        {
          "internalType": "uint256",
          "name": "index",
          "type": "uint256"
        },
        {
          "internalType": "string",
          "name": "newMeta",
          "type": "string"
        }
      ],
      "name": "updateRecordMeta",
      "outputs": [],
      "stateMutability": "nonpayable",
      "type": "function"
    },
    {
      "inputs": [
        {
          "internalType": "string",
          "name": "recordHash",
          "type": "string"
        }
      ],
      "name": "verifyRecord",
      "outputs": [],
      "stateMutability": "nonpayable",
      "type": "function"
    },
    {
      "inputs": [
        {
          "internalType": "string",
          "name": "recordHash",
          "type": "string"
        }
      ],
      "name": "verifyRecordHash",
      "outputs": [
        {
          "internalType": "bool",
          "name": "",
          "type": "bool"
        }
      ],
      "stateMutability": "view",
      "type": "function"
    }
  ],
  "bytecode": "0x608060405234801561001057600080fd5b50600580546001600160a01b03191633179055612353806100326000396000f3fe608060405234801561001057600080fd5b506004361061010b5760003560e01c806385e68531116100a2578063c40e582411610071578063c40e5824146102a4578063c59d4847146102b7578063cdb8acf0146102d2578063deb5ef09146102f8578063fe21f12e1461030157600080fd5b806385e68531146101e55780638da5cb5b146101f8578063910185dd14610223578063bbe108b91461029157600080fd5b8063413e63ad116100de578063413e63ad1461018c57806358214308146101a1578063738b1f13146101ca578063822d3885146101dd57600080fd5b806302e2df1c14610110578063125f89741461013f5780631709ef071461015657806334d6d29e14610179575b600080fd5b61012361011e366004611ad0565b610321565b6040516101369796959493929190611bff565b60405180910390f35b61014860065481565b604051908152602001610136565b610169610164366004611cba565b6109af565b6040519015158152602001610136565b610169610187366004611d35565b610a34565b61019f61019a366004611d76565b610a63565b005b6101486101af366004611ad0565b6001600160a01b031660009081526020819052604090205490565b61019f6101d8366004611e4c565b610f17565b61019f6110b5565b61019f6101f3366004611ad0565b611154565b60055461020b906001600160a01b031681565b6040516001600160a01b039091168152602001610136565b610274610231366004611cba565b6001600160a01b038083166000908152600160208181526040808420948616845293905291902090810154600282015460039092015490919060ff169250925092565b604080519384526020840192909252151590820152606001610136565b61019f61029f366004611ea5565b6111ad565b61019f6102b2366004611d35565b61140b565b60065460075460408051928352602083019190915201610136565b6102e56102e0366004611ed8565b611661565b6040516101369796959493929190611f02565b61014860075481565b61031461030f366004611ad0565b611a3e565b6040516101369190611f6d565b606080808080808087336001600160a01b038216148061039757506001600160a01b038116600090815260016020908152604080832033845290915290206003015460ff16801561039757506001600160a01b038116600090815260016020908152604080832033845290915290206002015442105b6103e85760405162461bcd60e51b815260206004820152601c60248201527f4e6f2061636365737320746f2070617469656e74207265636f7264730000000060448201526064015b60405180910390fd5b6001600160a01b038916600090815260208190526040902054806001600160401b0381111561041957610419611f80565b60405190808252806020026020018201604052801561044c57816020015b60608152602001906001900390816104375790505b509850806001600160401b0381111561046757610467611f80565b60405190808252806020026020018201604052801561049a57816020015b60608152602001906001900390816104855790505b509750806001600160401b038111156104b5576104b5611f80565b6040519080825280602002602001820160405280156104e857816020015b60608152602001906001900390816104d35790505b509650806001600160401b0381111561050357610503611f80565b60405190808252806020026020018201604052801561052c578160200160208202803683370190505b509550806001600160401b0381111561054757610547611f80565b604051908082528060200260200182016040528015610570578160200160208202803683370190505b509450806001600160401b0381111561058b5761058b611f80565b6040519080825280602002602001820160405280156105b4578160200160208202803683370190505b509350806001600160401b038111156105cf576105cf611f80565b60405190808252806020026020018201604052801561060257816020015b60608152602001906001900390816105ed5790505b50925060005b818110156109a1576001600160a01b038b16600090815260208190526040812080548390811061063a5761063a611f96565b9060005260206000209060060201905080600001805461065990611fac565b80601f016020809104026020016040519081016040528092919081815260200182805461068590611fac565b80156106d25780601f106106a7576101008083540402835291602001916106d2565b820191906000526020600020905b8154815290600101906020018083116106b557829003601f168201915b50505050508b83815181106106e9576106e9611f96565b602002602001018190525080600101805461070390611fac565b80601f016020809104026020016040519081016040528092919081815260200182805461072f90611fac565b801561077c5780601f106107515761010080835404028352916020019161077c565b820191906000526020600020905b81548152906001019060200180831161075f57829003601f168201915b50505050508a838151811061079357610793611f96565b60200260200101819052508060020180546107ad90611fac565b80601f01602080910402602001604051908101604052809291908181526020018280546107d990611fac565b80156108265780601f106107fb57610100808354040283529160200191610826565b820191906000526020600020905b81548152906001019060200180831161080957829003601f168201915b505050505089838151811061083d5761083d611f96565b6020026020010181905250806003015488838151811061085f5761085f611f96565b6020908102919091010152600481015487516001600160a01b039091169088908490811061088f5761088f611f96565b60200260200101906001600160a01b031690816001600160a01b0316815250508060040160149054906101000a900460ff168683815181106108d3576108d3611f96565b911515602092830291909101909101526005810180546108f290611fac565b80601f016020809104026020016040519081016040528092919081815260200182805461091e90611fac565b801561096b5780601f106109405761010080835404028352916020019161096b565b820191906000526020600020905b81548152906001019060200180831161094e57829003601f168201915b505050505085838151811061098257610982611f96565b602002602001018190525050808061099990611ffc565b915050610608565b505050919395979092949650565b6000816001600160a01b0316836001600160a01b03161480610a2b57506001600160a01b0380841660009081526001602090815260408083209386168352929052206003015460ff168015610a2b57506001600160a01b0380841660009081526001602090815260408083209386168352929052206002015442105b90505b92915050565b600060038383604051610a48929190612015565b9081526040519081900360200190205460ff16905092915050565b86610a9e5760405162461bcd60e51b815260206004820152600b60248201526a125b9d985b1a590818da5960aa1b60448201526064016103df565b80610ae15760405162461bcd60e51b8152602060048201526013602482015272092dcecc2d8d2c840e4cac6dee4c840d0c2e6d606b1b60448201526064016103df565b60038282604051610af3929190612015565b9081526040519081900360200190205460ff1615610b535760405162461bcd60e51b815260206004820152601a60248201527f5265636f7264206861736820616c72656164792065786973747300000000000060448201526064016103df565b336001600160a01b038a1614610c47576001600160a01b038916600090815260016020908152604080832033845290915290206003015460ff168015610bbf57506001600160a01b03891660009081526001602081815260408084203385529091529091200154600211155b8015610bf057506001600160a01b038916600090815260016020908152604080832033845290915290206002015442105b610c475760405162461bcd60e51b815260206004820152602260248201527f4e6f2077726974652061636365737320746f2070617469656e74207265636f72604482015261647360f01b60648201526084016103df565b6001600160a01b038916600090815260208181526040918290208251610100601f8c018490049093028101830190935260e083018a81529092918291908c908c9081908501838280828437600092019190915250505090825250604080516020601f8b0181900481028201810190925289815291810191908a908a9081908401838280828437600092019190915250505090825250604080516020601f89018190048102820181019092528781529181019190889088908190840183828082843760009201829052509385525050426020808501919091523360408086019190915260608501939093528251601f88018290048202810182019093528683526080909301928791508690819084018382808284376000920182905250939094525050835460018101855593815260209020825192936006020191829150610d8e9082612074565b5060208201516001820190610da39082612074565b5060408201516002820190610db89082612074565b5060608201516003820155608082015160048201805460a08501511515600160a01b026001600160a81b03199091166001600160a01b039093169290921791909117905560c08201516005820190610e109082612074565b505050600160038383604051610e27929190612015565b908152604051908190036020018120805492151560ff19909316929092179091558990600490610e5a9085908590612015565b90815260405190819003602001902080546001600160a01b03929092166001600160a01b031990921691909117905560068054906000610e9983611ffc565b90915550506001600160a01b0389166000908152602081905260409020543390610ec590600190612133565b8a6001600160a01b03167ff0d43d15e1e2c8d4ee2dd75d1cd7f50538e6524d28b8064c03b4da8fdb6f59a98b8b8787604051610f04949392919061216f565b60405180910390a4505050505050505050565b6001600160a01b0384166000908152602081905260409020548310610f745760405162461bcd60e51b8152602060048201526013602482015272496e646578206f7574206f6620626f756e647360681b60448201526064016103df565b336001600160a01b0385161480610fd257506001600160a01b0384166000908152602081905260409020805433919085908110610fb357610fb3611f96565b60009182526020909120600460069092020101546001600160a01b0316145b61101e5760405162461bcd60e51b815260206004820152601e60248201527f4e6f207065726d697373696f6e20746f20757064617465207265636f7264000060448201526064016103df565b6001600160a01b03841660009081526020819052604090208054839183918690811061104c5761104c611f96565b9060005260206000209060060201600201918261106a9291906121a1565b5082846001600160a01b03167f025dd575b14ca3dc8d0b4690c36e13aa78a22497a2f87a510d5b89e98605baed84846040516110a7929190612261565b60405180910390a350505050565b33600090815260208190526040902054156111125760405162461bcd60e51b815260206004820152601a60248201527f50617469656e7420616c7265616479207265676973746572656400000000000060448201526064016103df565b6007805490600061112283611ffc565b909155505060405133907fc9fa2003fca4ce0dfc8cb0deae32266b715536df6685365b05b5be96ede8e49c90600090a2565b3360008181526001602090815260408083206001600160a01b0386168085529252808320600301805460ff19169055519092917f825c8be24eb0df19500f63e86c29e7d0d951e73056b889b891d85e40938d9b6e91a350565b600182101580156111bf575060038211155b61120b5760405162461bcd60e51b815260206004820152601760248201527f496e76616c6964207065726d697373696f6e207479706500000000000000000060448201526064016103df565b6000811161124e5760405162461bcd60e51b815260206004820152601060248201526f24b73b30b634b210323ab930ba34b7b760811b60448201526064016103df565b6040518060800160405280846001600160a01b03168152602001838152602001826201518061127d919061227d565b6112879042612294565b81526001602091820181905233600090815281835260408082206001600160a01b038981168452908552818320865181546001600160a01b031916921691909117815593850151928401929092559083015160028301556060909201516003909101805460ff1916911515919091179055805b336000908152600260205260409020548110156113735733600090815260026020526040902080546001600160a01b03871691908390811061133e5761133e611f96565b6000918252602090912001546001600160a01b0316036113615760019150611373565b8061136b81611ffc565b9150506112fa565b50806113b2573360009081526002602090815260408220805460018101825590835291200180546001600160a01b0319166001600160a01b0386161790555b6001600160a01b038416337fb83dcb4c7be3b65620039f90160bc5d0243073b141f0850704c748dfaccff679856113ec866201518061227d565b6113f69042612294565b604080519283526020830191909152016110a7565b6005546001600160a01b0316331461146f5760405162461bcd60e51b815260206004820152602160248201527f4f6e6c79206f776e65722063616e2063616c6c20746869732066756e6374696f6044820152603760f91b60648201526084016103df565b60038282604051611481929190612015565b9081526040519081900360200190205460ff166114e05760405162461bcd60e51b815260206004820152601a60248201527f5265636f7264206861736820646f6573206e6f7420657869737400000000000060448201526064016103df565b6000600483836040516114f4929190612015565b908152604051908190036020019020546001600160a01b0316905060005b6001600160a01b03821660009081526020819052604090205481101561165b578383604051611542929190612015565b6040518091039020600080846001600160a01b03166001600160a01b03168152602001908152602001600020828154811061157f5761157f611f96565b906000526020600020906006020160050160405161159d91906122a7565b604051809103902003611649576001600160a01b0382166000908152602081905260409020805460019190839081106115d8576115d8611f96565b906000526020600020906006020160040160146101000a81548160ff02191690831515021790555080826001600160a01b03167f0b7a7bf2b2b2634d8c5c7ffa85ff191c369d42e3c5a4c5b6939ad76590b7d435868660405161163c929190612261565b60405180910390a361165b565b8061165381611ffc565b915050611512565b50505050565b60608080600080808388336001600160a01b03821614806116d857506001600160a01b038116600090815260016020908152604080832033845290915290206003015460ff1680156116d857506001600160a01b038116600090815260016020908152604080832033845290915290206002015442105b6117245760405162461bcd60e51b815260206004820152601c60248201527f4e6f2061636365737320746f2070617469656e74207265636f7264730000000060448201526064016103df565b6001600160a01b038a1660009081526020819052604090205489106117815760405162461bcd60e51b8152602060048201526013602482015272496e646578206f7574206f6620626f756e647360681b60448201526064016103df565b6001600160a01b038a16600090815260208190526040812080548b9081106117ab576117ab611f96565b6000918252602090912060069091020160038101546004820154825492935083926001840192600285019290916001600160a01b03821691600160a01b900460ff1690600587019087906117fe90611fac565b80601f016020809104026020016040519081016040528092919081815260200182805461182a90611fac565b80156118775780601f1061184c57610100808354040283529160200191611877565b820191906000526020600020905b81548152906001019060200180831161185a57829003601f168201915b5050505050965085805461188a90611fac565b80601f01602080910402602001604051908101604052809291908181526020018280546118b690611fac565b80156119035780601f106118d857610100808354040283529160200191611903565b820191906000526020600020905b8154815290600101906020018083116118e657829003601f168201915b5050505050955084805461191690611fac565b80601f016020809104026020016040519081016040528092919081815260200182805461194290611fac565b801561198f5780601f106119645761010080835404028352916020019161198f565b820191906000526020600020905b81548152906001019060200180831161197257829003601f168201915b505050505094508080546119a290611fac565b80601f01602080910402602001604051908101604052809291908181526020018280546119ce90611fac565b8015611a1b5780601f106119f057610100808354040283529160200191611a1b565b820191906000526020600020905b8154815290600101906020018083116119fe57829003601f168201915b505050505090509850985098509850985098509850505092959891949750929550565b6001600160a01b038116600090815260026020908152604091829020805483518184028101840190945280845260609392830182828015611aa857602002820191906000526020600020905b81546001600160a01b03168152600190910190602001808311611a8a575b50505050509050919050565b80356001600160a01b0381168114611acb57600080fd5b919050565b600060208284031215611ae257600080fd5b610a2b82611ab4565b6000815180845260005b81811015611b1157602081850181015186830182015201611af5565b506000602082860101526020601f19601f83011685010191505092915050565b600082825180855260208086019550808260051b84010181860160005b84811015611b7c57601f19868403018952611b6a838351611aeb565b98840198925090830190600101611b4e565b5090979650505050505050565b600081518084526020808501945080840160005b83811015611bc25781516001600160a01b031687529582019590820190600101611b9d565b509495945050505050565b600081518084526020808501945080840160005b83811015611bc2578151151587529582019590820190600101611be1565b60e081526000611c1260e083018a611b31565b602083820381850152611c25828b611b31565b91508382036040850152611c39828a611b31565b84810360608601528851808252828a0193509082019060005b81811015611c6e57845183529383019391830191600101611c52565b50508481036080860152611c828189611b89565b9250505082810360a0840152611c988186611bcd565b905082810360c0840152611cac8185611b31565b9a9950505050505050505050565b60008060408385031215611ccd57600080fd5b611cd683611ab4565b9150611ce460208401611ab4565b90509250929050565b60008083601f840112611cff57600080fd5b5081356001600160401b03811115611d1657600080fd5b602083019150836020828501011115611d2e57600080fd5b9250929050565b60008060208385031215611d4857600080fd5b82356001600160401b03811115611d5e57600080fd5b611d6a85828601611ced565b90969095509350505050565b600080600080600080600080600060a08a8c031215611d9457600080fd5b611d9d8a611ab4565b985060208a01356001600160401b0380821115611db957600080fd5b611dc58d838e01611ced565b909a50985060408c0135915080821115611dde57600080fd5b611dea8d838e01611ced565b909850965060608c0135915080821115611e0357600080fd5b611e0f8d838e01611ced565b909650945060808c0135915080821115611e2857600080fd5b50611e358c828d01611ced565b915080935050809150509295985092959850929598565b60008060008060608587031215611e6257600080fd5b611e6b85611ab4565b93506020850135925060408501356001600160401b03811115611e8d57600080fd5b611e9987828801611ced565b95989497509550505050565b600080600060608486031215611eba57600080fd5b611ec384611ab4565b95602085013595506040909401359392505050565b60008060408385031215611eeb57600080fd5b611ef483611ab4565b946020939093013593505050565b60e081526000611f1560e083018a611aeb565b8281036020840152611f27818a611aeb565b90508281036040840152611f3b8189611aeb565b606084018890526001600160a01b038716608085015285151560a085015283810360c08501529050611cac8185611aeb565b602081526000610a2b6020830184611b89565b634e487b7160e01b600052604160045260246000fd5b634e487b7160e01b600052603260045260246000fd5b600181811c90821680611fc057607f821691505b602082108103611fe057634e487b7160e01b600052602260045260246000fd5b50919050565b634e487b7160e01b600052601160045260246000fd5b60006001820161200e5761200e611fe6565b5060010190565b8183823760009101908152919050565b601f82111561206f57600081815260208120601f850160051c8101602086101561204c5750805b601f850160051c820191505b8181101561206b57828155600101612058565b5050505b505050565b81516001600160401b0381111561208d5761208d611f80565b6120a18161209b8454611fac565b84612025565b602080601f8311600181146120d657600084156120be5750858301515b600019600386901b1c1916600185901b17855561206b565b600085815260208120601f198616915b82811015612105578886015182559484019460019091019084016120e6565b50858210156121235787850151600019600388901b60f8161c191681555b5050505050600190811b01905550565b81810381811115610a2e57610a2e611fe6565b81835281816020850137506000828201602090810191909152601f909101601f19169091010190565b604081526000612183604083018688612146565b8281036020840152612196818587612146565b979650505050505050565b6001600160401b038311156121b8576121b8611f80565b6121cc836121c68354611fac565b83612025565b6000601f84116001811461220057600085156121e85750838201355b600019600387901b1c1916600186901b17835561225a565b600083815260209020601f19861690835b828110156122315786850135825560209485019460019092019101612211565b508682101561224e5760001960f88860031b161c19848701351681555b505060018560011b0183555b5050505050565b602081526000612275602083018486612146565b949350505050565b8082028115828204841417610a2e57610a2e611fe6565b80820180821115610a2e57610a2e611fe6565b60008083546122b581611fac565b600182811680156122cd57600181146122e257612311565b60ff1984168752821515830287019450612311565b8760005260208060002060005b858110156123085781548a8201529084019082016122ef565b50505082870194505b5092969550505050505056fea2646970667358221220e0ecdacfa75f394de3c1e0e896c0fb6020c8060bf5b6da6071c8de7bc6e0150e64736f6c63430008130033",
  "linkReferences": {},
  "deployedLinkReferences": {}
}