{
  "_format": "hh-sol-artifact-1",
  "contractName": "MedicalRecords",
  "sourceName": "Contracts/MedicalRecords.sol",
  "abi": [
    {
      "anonymous": false,
      "inputs": [
        {
          "indexed": true,
          "internalType": "address",
          "name": "patient",
          "type": "address"
        },
        {
          "indexed": true,
          "internalType": "address",
          "name": "provider",
          "type": "address"
        }
      ],
      "name": "AccessGranted",
      "type": "event"
    },
    {
      "anonymous": false,
      "inputs": [
        {
          "indexed": true,
          "internalType": "address",
          "name": "patient",
          "type": "address"
        },
        {
          "indexed": true,
          "internalType": "address",
          "name": "provider",
          "type": "address"
        }
      ],
      "name": "AccessRevoked",
      "type": "event"
    },
    {
      "anonymous": false,
      "inputs": [
        {
          "indexed": true,
          "internalType": "address",
          "name": "patient",
          "type": "address"
        },
        {
          "indexed": true,
          "internalType": "uint256",
          "name": "index",
          "type": "uint256"
        },
        {
          "indexed": false,
          "internalType": "string",
          "name": "cid",
          "type": "string"
        },
        {
          "indexed": true,
          "internalType": "address",
          "name": "addedBy",
          "type": "address"
        }
      ],
      "name": "RecordAdded",
      "type": "event"
    },
    {
      "inputs": [
        {
          "internalType": "address",
          "name": "patient",
          "type": "address"
        },
        {
          "internalType": "string",
          "name": "cid",
          "type": "string"
        },
        {
          "internalType": "string",
          "name": "fileType",
          "type": "string"
        },
        {
          "internalType": "string",
          "name": "meta",
          "type": "string"
        }
      ],
      "name": "addRecord",
      "outputs": [],
      "stateMutability": "nonpayable",
      "type": "function"
    },
    {
      "inputs": [
        {
          "internalType": "address",
          "name": "patient",
          "type": "address"
        },
        {
          "internalType": "uint256",
          "name": "index",
          "type": "uint256"
        }
      ],
      "name": "getRecord",
      "outputs": [
        {
          "internalType": "string",
          "name": "cid",
          "type": "string"
        },
        {
          "internalType": "string",
          "name": "fileType",
          "type": "string"
        },
        {
          "internalType": "string",
          "name": "meta",
          "type": "string"
        },
        {
          "internalType": "uint256",
          "name": "timestamp",
          "type": "uint256"
        },
        {
          "internalType": "address",
          "name": "addedBy",
          "type": "address"
        }
      ],
      "stateMutability": "view",
      "type": "function"
    },
    {
      "inputs": [
        {
          "internalType": "address",
          "name": "patient",
          "type": "address"
        }
      ],
      "name": "getRecordCount",
      "outputs": [
        {
          "internalType": "uint256",
          "name": "",
          "type": "uint256"
        }
      ],
      "stateMutability": "view",
      "type": "function"
    },
    {
      "inputs": [
        {
          "internalType": "address",
          "name": "provider",
          "type": "address"
        }
      ],
      "name": "grantAccess",
      "outputs": [],
      "stateMutability": "nonpayable",
      "type": "function"
    },
    {
      "inputs": [
        {
          "internalType": "address",
          "name": "patient",
          "type": "address"
        },
        {
          "internalType": "address",
          "name": "provider",
          "type": "address"
        }
      ],
      "name": "hasAccess",
      "outputs": [
        {
          "internalType": "bool",
          "name": "",
          "type": "bool"
        }
      ],
      "stateMutability": "view",
      "type": "function"
    },
    {
      "inputs": [
        {
          "internalType": "address",
          "name": "provider",
          "type": "address"
        }
      ],
      "name": "revokeAccess",
      "outputs": [],
      "stateMutability": "nonpayable",
      "type": "function"
    }
  ],
  "bytecode": "0x608060405234801561001057600080fd5b50611481806100206000396000f3fe608060405234801561001057600080fd5b50600436106100625760003560e01c80630ae5e739146100675780631709ef071461008357806358214308146100b357806385e68531146100e3578063cdb8acf0146100ff578063e8fb469614610133575b600080fd5b610081600480360381019061007c9190610b90565b61014f565b005b61009d60048036038101906100989190610bbd565b610240565b6040516100aa9190610c18565b60405180910390f35b6100cd60048036038101906100c89190610b90565b61030a565b6040516100da9190610c4c565b60405180910390f35b6100fd60048036038101906100f89190610b90565b610355565b005b61011960048036038101906101149190610c93565b610447565b60405161012a959493929190610d72565b60405180910390f35b61014d60048036038101906101489190610e3f565b610723565b005b60018060003373ffffffffffffffffffffffffffffffffffffffff1673ffffffffffffffffffffffffffffffffffffffff16815260200190815260200160002060008373ffffffffffffffffffffffffffffffffffffffff1673ffffffffffffffffffffffffffffffffffffffff16815260200190815260200160002060006101000a81548160ff0219169083151502179055508073ffffffffffffffffffffffffffffffffffffffff163373ffffffffffffffffffffffffffffffffffffffff167f9f520b3bfc56d06f7065d10b4683b3f57ac8895d5026cd176dee95ce1454cb8d60405160405180910390a350565b60008173ffffffffffffffffffffffffffffffffffffffff168373ffffffffffffffffffffffffffffffffffffffff1614806103025750600160008473ffffffffffffffffffffffffffffffffffffffff1673ffffffffffffffffffffffffffffffffffffffff16815260200190815260200160002060008373ffffffffffffffffffffffffffffffffffffffff1673ffffffffffffffffffffffffffffffffffffffff16815260200190815260200160002060009054906101000a900460ff165b905092915050565b60008060008373ffffffffffffffffffffffffffffffffffffffff1673ffffffffffffffffffffffffffffffffffffffff168152602001908152602001600020805490509050919050565b6000600160003373ffffffffffffffffffffffffffffffffffffffff1673ffffffffffffffffffffffffffffffffffffffff16815260200190815260200160002060008373ffffffffffffffffffffffffffffffffffffffff1673ffffffffffffffffffffffffffffffffffffffff16815260200190815260200160002060006101000a81548160ff0219169083151502179055508073ffffffffffffffffffffffffffffffffffffffff163373ffffffffffffffffffffffffffffffffffffffff167f825c8be24eb0df19500f63e86c29e7d0d951e73056b889b891d85e40938d9b6e60405160405180910390a350565b60608060606000806000808873ffffffffffffffffffffffffffffffffffffffff1673ffffffffffffffffffffffffffffffffffffffff1681526020019081526020016000208054905086106104d2576040517f08c379a00000000000000000000000000000000000000000000000000000000081526004016104c990610f54565b60405180910390fd5b60008060008973ffffffffffffffffffffffffffffffffffffffff1673ffffffffffffffffffffffffffffffffffffffff168152602001908152602001600020878154811061052457610523610f74565b5b9060005260206000209060050201905080600001816001018260020183600301548460040160009054906101000a900473ffffffffffffffffffffffffffffffffffffffff1684805461057690610fd2565b80601f01602080910402602001604051908101604052809291908181526020018280546105a290610fd2565b80156105ef5780601f106105c4576101008083540402835291602001916105ef565b820191906000526020600020905b8154815290600101906020018083116105d257829003601f168201915b5050505050945083805461060290610fd2565b80601f016020809104026020016040519081016040528092919081815260200182805461062e90610fd2565b801561067b5780601f106106505761010080835404028352916020019161067b565b820191906000526020600020905b81548152906001019060200180831161065e57829003601f168201915b5050505050935082805461068e90610fd2565b80601f01602080910402602001604051908101604052809291908181526020018280546106ba90610fd2565b80156107075780601f106106dc57610100808354040283529160200191610707565b820191906000526020600020905b8154815290600101906020018083116106ea57829003601f168201915b5050505050925095509550955095509550509295509295909350565b60008686905011610769576040517f08c379a00000000000000000000000000000000000000000000000000000000081526004016107609061104f565b60405180910390fd5b8673ffffffffffffffffffffffffffffffffffffffff163373ffffffffffffffffffffffffffffffffffffffff161461086657600160008873ffffffffffffffffffffffffffffffffffffffff1673ffffffffffffffffffffffffffffffffffffffff16815260200190815260200160002060003373ffffffffffffffffffffffffffffffffffffffff1673ffffffffffffffffffffffffffffffffffffffff16815260200190815260200160002060009054906101000a900460ff16610865576040517f08c379a000000000000000000000000000000000000000000000000000000000815260040161085c906110bb565b60405180910390fd5b5b6000808873ffffffffffffffffffffffffffffffffffffffff1673ffffffffffffffffffffffffffffffffffffffff1681526020019081526020016000206040518060a0016040528088888080601f016020809104026020016040519081016040528093929190818152602001838380828437600081840152601f19601f82011690508083019250505050505050815260200186868080601f016020809104026020016040519081016040528093929190818152602001838380828437600081840152601f19601f82011690508083019250505050505050815260200184848080601f016020809104026020016040519081016040528093929190818152602001838380828437600081840152601f19601f8201169050808301925050505050505081526020014281526020013373ffffffffffffffffffffffffffffffffffffffff16815250908060018154018082558091505060019003906000526020600020906005020160009091909190915060008201518160000190816109eb91906112b6565b506020820151816001019081610a0191906112b6565b506040820151816002019081610a1791906112b6565b506060820151816003015560808201518160040160006101000a81548173ffffffffffffffffffffffffffffffffffffffff021916908373ffffffffffffffffffffffffffffffffffffffff16021790555050503373ffffffffffffffffffffffffffffffffffffffff1660016000808a73ffffffffffffffffffffffffffffffffffffffff1673ffffffffffffffffffffffffffffffffffffffff16815260200190815260200160002080549050610ad091906113b7565b8873ffffffffffffffffffffffffffffffffffffffff167ef54c8f790bd394cbe4b9102b04e757be79c107200527b390b5245db6e2b3b38989604051610b17929190611427565b60405180910390a450505050505050565b600080fd5b600080fd5b600073ffffffffffffffffffffffffffffffffffffffff82169050919050565b6000610b5d82610b32565b9050919050565b610b6d81610b52565b8114610b7857600080fd5b50565b600081359050610b8a81610b64565b92915050565b600060208284031215610ba657610ba5610b28565b5b6000610bb484828501610b7b565b91505092915050565b60008060408385031215610bd457610bd3610b28565b5b6000610be285828601610b7b565b9250506020610bf385828601610b7b565b9150509250929050565b60008115159050919050565b610c1281610bfd565b82525050565b6000602082019050610c2d6000830184610c09565b92915050565b6000819050919050565b610c4681610c33565b82525050565b6000602082019050610c616000830184610c3d565b92915050565b610c7081610c33565b8114610c7b57600080fd5b50565b600081359050610c8d81610c67565b92915050565b60008060408385031215610caa57610ca9610b28565b5b6000610cb885828601610b7b565b9250506020610cc985828601610c7e565b9150509250929050565b600081519050919050565b600082825260208201905092915050565b60005b83811015610d0d578082015181840152602081019050610cf2565b60008484015250505050565b6000601f19601f8301169050919050565b6000610d3582610cd3565b610d3f8185610cde565b9350610d4f818560208601610cef565b610d5881610d19565b840191505092915050565b610d6c81610b52565b82525050565b600060a0820190508181036000830152610d8c8188610d2a565b90508181036020830152610da08187610d2a565b90508181036040830152610db48186610d2a565b9050610dc36060830185610c3d565b610dd06080830184610d63565b9695505050505050565b600080fd5b600080fd5b600080fd5b60008083601f840112610dff57610dfe610dda565b5b8235905067ffffffffffffffff811115610e1c57610e1b610ddf565b5b602083019150836001820283011115610e3857610e37610de4565b5b9250929050565b60008060008060008060006080888a031215610e5e57610e5d610b28565b5b6000610e6c8a828b01610b7b565b975050602088013567ffffffffffffffff811115610e8d57610e8c610b2d565b5b610e998a828b01610de9565b9650965050604088013567ffffffffffffffff811115610ebc57610ebb610b2d565b5b610ec88a828b01610de9565b9450945050606088013567ffffffffffffffff811115610eeb57610eea610b2d565b5b610ef78a828b01610de9565b925092505092959891949750929550565b7f496e646578206f7574206f6620626f756e647300000000000000000000000000600082015250565b6000610f3e601383610cde565b9150610f4982610f08565b602082019050919050565b60006020820190508181036000830152610f6d81610f31565b9050919050565b7f4e487b7100000000000000000000000000000000000000000000000000000000600052603260045260246000fd5b7f4e487b7100000000000000000000000000000000000000000000000000000000600052602260045260246000fd5b60006002820490506001821680610fea57607f821691505b602082108103610ffd57610ffc610fa3565b5b50919050565b7f496e76616c696420636964000000000000000000000000000000000000000000600082015250565b6000611039600b83610cde565b915061104482611003565b602082019050919050565b600060208201905081810360008301526110688161102c565b9050919050565b7f4e6f2061636365737320746f2061646420666f722070617469656e7400000000600082015250565b60006110a5601c83610cde565b91506110b08261106f565b602082019050919050565b600060208201905081810360008301526110d481611098565b9050919050565b7f4e487b7100000000000000000000000000000000000000000000000000000000600052604160045260246000fd5b60008190508160005260206000209050919050565b60006020601f8301049050919050565b600082821b905092915050565b60006008830261116c7fffffffffffffffffffffffffffffffffffffffffffffffffffffffffffffffff8261112f565b611176868361112f565b95508019841693508086168417925050509392505050565b6000819050919050565b60006111b36111ae6111a984610c33565b61118e565b610c33565b9050919050565b6000819050919050565b6111cd83611198565b6111e16111d9826111ba565b84845461113c565b825550505050565b600090565b6111f66111e9565b6112018184846111c4565b505050565b5b818110156112255761121a6000826111ee565b600181019050611207565b5050565b601f82111561126a5761123b8161110a565b6112448461111f565b81016020851015611253578190505b61126761125f8561111f565b830182611206565b50505b505050565b600082821c905092915050565b600061128d6000198460080261126f565b1980831691505092915050565b60006112a6838361127c565b9150826002028217905092915050565b6112bf82610cd3565b67ffffffffffffffff8111156112d8576112d76110db565b5b6112e28254610fd2565b6112ed828285611229565b600060209050601f831160018114611320576000841561130e578287015190505b611318858261129a565b865550611380565b601f19841661132e8661110a565b60005b8281101561135657848901518255600182019150602085019450602081019050611331565b86831015611373578489015161136f601f89168261127c565b8355505b6001600288020188555050505b505050505050565b7f4e487b7100000000000000000000000000000000000000000000000000000000600052601160045260246000fd5b60006113c282610c33565b91506113cd83610c33565b92508282039050818111156113e5576113e4611388565b5b92915050565b82818337600083830152505050565b60006114068385610cde565b93506114138385846113eb565b61141c83610d19565b840190509392505050565b600060208201905081810360008301526114428184866113fa565b9050939250505056fea264697066735822122094eb11438b942e977e4640e72ae6f9829cbc46ffb02c63b0fbd298014110ed8064736f6c63430008180033",
  "linkReferences": {},
  "deployedLinkReferences": {}
}